:020000040800F2
:100000005877002439030008B93D0008893B0008EF
:10001000B13D0008310500087954000800000000D7
:10002000000000000000000000000000D9410008AE
:100030003905000800000000313E00083942000880
:100040005303000853030008530300085303000838
:100050005303000853030008530300085303000828
:100060005303000853030008530300085303000818
:100070005303000853030008530300085303000808
:1000800053030008530300085303000853030008F8
:1000900053030008530300085303000853030008E8
:1000A00053030008530300085303000853030008D8
:1000B00053030008530300085303000853030008C8
:1000C00053030008530300085303000853030008B8
:1000D00053030008530300085303000853030008A8
:1000E00053030008530300080000000053030008F6
:1000F0005303000853030008530300085303000888
:100100005303000853030008530300085303000877
:100110005303000853030008530300085303000867
:100120005303000853030008530300085303000857
:100130005303000853030008530300085303000847
:1001400000000000000000000000000000000000AF
:100150005303000853030008530300085303000827
:100160005303000853030008530300085303000817
:100170005303000853030008530300080000000065
:1001800053030008530300085303000853030008F7
:1001900053030008530300085303000853030008E7
:1001A00053030008530300085303000853030008D7
:1001B00053030008530300085303000853030008C7
:1001C00053030008530300085303000853030008B7
:1001D00053030008530300085303000853030008A7
:1001E0005303000853030008530300085303000897
:1001F0005303000853030008530300085303000887
:100200005303000853030008530300085303000876
:100210005303000853030008530300085303000866
:1002200053030008530300085303000800000000B4
:1002300053030008530300080000000053030008A4
:100240005303000853030008530300085303000836
:100250005303000853030008530300085303000826
:100260005303000853030008530300085303000816
:100270005303000853030008530300080000000064
:100280005303000853030008530300080000000054
:10029000000000005303000800F002F800F03CF8F2
:1002A0000AA090E8000C82448344AAF10107DA45D1
:1002B00001D100F031F8AFF2090EBAE80F0013F0E7
:1002C000010F18BFFB1A43F0010318479C530000AD
:1002D000BC530000103A24BF78C878C1FAD852073E
:1002E00024BF30C830C144BF04680C6070470000B0
:1002F0000023002400250026103A28BF78C1FBD82F
:10030000520728BF30C148BF0B6070471FB505F0CA
:1003100081F91FBD10B510BD00F0D0F81146FFF7F0
:10032000F5FF05F0F9F800F0EEF803B4FFF7F2FF7F
:1003300003BC00F0F5F80000094880470948004771
:10034000FEE7FEE7FEE7FEE7FEE7FEE7FEE7FEE785
:10035000FEE7FEE704480549054A064B70470000E2
:100360009943000899020008580100245877002496
:10037000580300245803002453EA020C00F069805B
:100380002DE9F04B4FF00006002B1FBFB3FA83F5A9
:1003900003FA05F424FA05F65E4012BF1643B2FADA
:1003A00082F502FA05F4C5F120051EBF22FA05FC0C
:1003B00044EA0C04203556EA044C4FEA144418BFB2
:1003C000641C4FF000084FF00009904271EB030CE1
:1003D00039D3002919BFB1FA81F701FA07F6B0FA4B
:1003E00080F700FA07F6C7F120071EBF20FA07FCC6
:1003F00046EA0C062037B6FBF4FCA7EB0507103FD6
:1004000007F01F0BCBF120062CFA06F60CFA0BFBBB
:1004100044BFB3460026202FA4BF5E464FF0000B1A
:100420005BEA060C08BF4FF0010B19EB0B0948EB18
:100430000608ABFB027C06FB02CC0BFB03CCC01B0B
:1004400071EB0C01C1E70B46024641464846BDE848
:10045000F08B13B5084318BF4FF0FF300146AFF3E0
:100460000080BDE81C4070474FF0000200B5134605
:1004700094469646203922BFA0E80C50A0E80C50C4
:10048000B1F12001BFF4F7AF090728BFA0E80C5075
:1004900048BF0CC05DF804EB890028BF40F8042B6E
:1004A00008BF704748BF20F8022B11F0804F18BFDB
:1004B00000F8012B7047704770477047754600F091
:1004C0002BF8AE4605006946534620F007008546E6
:1004D00018B020B5FFF73EFFBDE820404FF0000602
:1004E0004FF000074FF000084FF0000BAC46ACE8AF
:1004F000C009ACE8C009ACE8C009ACE8C00921F00B
:1005000007018D46704710B50446AFF300802046C2
:10051000BDE81040FFF709BF0048704710000024F5
:1005200001491820ABBEFEE726000200704700001C
:10053000FFE7FEE700000000704700000000000039
:1005400081B0EFF3108072B60090FFE7FEE7000085
:1005500090B00F900E9100200D908020C5F6000005
:100560000A90FFE70E9800680D99C840002800F037
:10057000CF81FFE70E9800680D9A01219140084055
:100580000C900C98002800F0BF81FFE70E9840689F
:1005900000F00300012807D0FFE70E98406800F044
:1005A000030002282FD1FFE70F9880680B900D9869
:1005B0004100032000FA01F10B9888430B900E983C
:1005C000C0680D99490000FA01F10B9808430B909F
:1005D0000B980F9988600F9840680B900D99012037
:1005E00000FA01F10B9888430B900E984068C0F315
:1005F00000100D9900FA01F10B9808430B900B982D
:100600000F994860FFE70E98406800F00300032848
:1006100018D0FFE70F98C0680B900D984100032099
:1006200000FA01F10B9888430B900E9880680D99A1
:10063000490000FA01F10B9808430B900B980F99B1
:10064000C860FFE70E98406800F00300022826D13A
:10065000FFE70F980D996FF0030202EA5101084479
:10066000006A0B900D9800F0070081000F2000FA3F
:1006700001F10B9888430B900E9800690D9901F0D9
:100680000701890000FA01F10B9808430B900B98C1
:100690000F990D9B02EA530211440862FFE70F987D
:1006A00000680B900D984100032000FA01F10B98AF
:1006B00088430B900E98406800F003000D994900A4
:1006C00000FA01F10B9808430B900B980F99086002
:1006D0000E9880798007002800F01581FFE7FFE77A
:1006E00044F2F440C5F60200016841F002010160E5
:1006F000006800F0020009900998FFE70D9820F0CB
:10070000030040F20841C5F6000140580B900D98D7
:1007100000F0030081000F2000FA01F10B988843DC
:100720000B900F980021C5F60201884203D1FFE724
:10073000002008907AE00F9840F20041C5F60201CF
:10074000884203D1FFE7012007906CE00F9840F644
:100750000001C5F60201884203D1FFE7022006909E
:100760005EE00F9840F60041C5F60201884203D1D1
:10077000FFE70320059050E00F9841F20001C5F615
:100780000201884203D1FFE70420049042E00F9861
:1007900041F20041C5F60201884203D1FFE705207E
:1007A000039034E00F9841F60001C5F6020188423B
:1007B00003D1FFE70620029026E00F9841F60041A2
:1007C000C5F60201884203D1FFE70720019018E037
:1007D0000F9842F20001C5F60201884203D1FFE7FB
:1007E000082000900AE00F9942F20042C5F602028A
:1007F0000A20914208BF09200090FFE7009801906D
:10080000FFE701980290FFE702980390FFE7039843
:100810000490FFE704980590FFE705980690FFE72E
:1008200006980790FFE707980890FFE708980D994A
:1008300001F00301890000FA01F10B9808430B90C5
:100840000B980D9921F0030140F20842C5F6000211
:1008500088504FF0B04000680B900C990B9888437B
:100860000B900E988079C006002805D5FFE70C99FB
:100870000B9808430B90FFE70B984FF0B0410860CE
:100880000420C5F6000000680B900C990B98884373
:100890000B900E9880798006002805D5FFE70C990B
:1008A0000B9808430B90FFE70B980421C5F6000155
:1008B00008600A9840680B900C990B9888430B903D
:1008C0000E9880798007002805D5FFE70C990B98D2
:1008D00008430B90FFE70B980A9948600A98006854
:1008E0000B900C990B9888430B900E988079C00759
:1008F00028B1FFE70C990B9808430B90FFE70B9882
:100900000A990860FFE7FFE70D9801300D9029E68E
:1009100010B070470000000041F20000C5F6004032
:100920000068000C7047000040F25010C2F2004016
:10093000006870470000000040F20800C2F200406A
:10094000027840F25011C2F2004108681044086079
:10095000704700000000000080B582B0032000F066
:1009600027F901F035FF44F21842C5F6020211687A
:10097000C1F3032345F22E61C0F60001CB5C03F006
:100980001F03D84000900098126802F00F02895CA3
:1009900001F01F01C84040F20401C2F200410860AA
:1009A000009840F20001C2F2004108600F2000F000
:1009B00013F820B1FFE701208DF8070005E000F0F3
:1009C000CBF800208DF80700FFE79DF8070002B084
:1009D00080BD00000000000080B582B0009040F2B1
:1009E0000800C2F20040007820B9FFE701208DF82E
:1009F000070030E040F20000C2F20040006840F220
:100A00000801C2F200410A784FF47A71B1FBF2F1A9
:100A1000B0FBF1F002F010FE20B1FFE701208DF8ED
:100A2000070018E000980F280DD8FFE700994FF055
:100A3000FF30002200F0A4F8009840F20C01C2F24E
:100A40000041086003E001208DF8070003E000206A
:100A50008DF80700FFE79DF8070002B080BD000099
:100A600080B582B00190019840784EF69851CEF250
:100A7000000108600198007898B3FFE7019840688A
:100A80004EF69C51CEF200010860DDF804C0CDF8AE
:100A900000C09CF80C0000079CF80B1040EA0160B5
:100AA0009CF800109CF808209CF809309CF80AE09B
:100AB00040EACE409CF80DE040EA8E409CF80EE003
:100AC00040EA4E409CF80FC040EA0C4040EA032048
:100AD00040EA420008434EF6A051CEF20001086001
:100AE0000BE04EF69C51CEF20001002008604EF65D
:100AF000A051CEF200010860FFE702B080BD000007
:100B0000BFF35F8F4EF62451CEF20001086820F447
:100B1000803008604EF69451CEF20001002008604B
:100B2000704700000000000081B00090009840F085
:100B300001004EF69451CEF2000108604EF62451A9
:100B4000CEF20001086840F480300860BFF34F8F98
:100B5000BFF36F8F01B0704781B0FFE744F2F440FC
:100B6000C5F60200016841F002010160006800F072
:100B7000020000900098FFE701B0704700000000FD
:100B800080B586B0ADF816000491039204F078FCAD
:100B90000290BDF91600019002980499039A03F09F
:100BA0000FF90146019804F073FC06B080BD000007
:100BB00080B582B00190019804F08EFC02B080BD37
:100BC00080B584B0029044F60C00C5F602000068BF
:100BD00000F004010020B0EB910F13D1FFE744F6C1
:100BE0000C00C5F60200006800F007000299884278
:100BF00004D0FFE701208DF80F002EE000208DF8D3
:100C00000F002AE044F60C01C5F60201086820F046
:100C10000700029A10430860FFF786FE0190FFE785
:100C200044F60400C5F60200006800F400510020FC
:100C3000B0EB513F0DD1FFE7FFF776FE0199401A67
:100C4000B0F57A7F04D9FFE701208DF80F0004E0AA
:100C5000E6E700208DF80F00FFE79DF80F0004B0D5
:100C600080BD00000000000080B501F05DFD44F291
:100C70002041C5F602010968C1F3021245F22E6156
:100C8000C0F60001895C01F01F01C84080BD000072
:100C900088B0079044F22840C5F60200016801F0D0
:100CA000030106910068C0F30530059044F22C4022
:100CB000C5F602000068C0F300100490049844F2E6
:100CC0003C41C5F60201096889B2C908484300EEF3
:100CD000100AB8EE400A8DED020A0598002800F0CF
:100CE0001B81FFE70698009048B1FFE700980128B4
:100CF00069D0FFE70098022800F08980ABE044F259
:100D00000040C5F60200006800F020010020B0EBB2
:100D1000511F33D0FFE744F20040C5F602000068DF
:100D2000C0F3C10149F20000C0F2D030C8400390C6
:100D30009DED030AB8EE400A9DED051AB8EE411A82
:100D400080EE010A44F23840C5F6020000686FF3F5
:100D50005F2001EE100AB8EE411A9DED022A9FEDC8
:100D6000743A82EE032A31EE021AB7EE002A31EE0F
:100D7000021A20EE010A8DED010A23E09DED050A1D
:100D8000B8EE401A9FED6C0A80EE010A44F238403A
:100D9000C5F6020000686FF35F2001EE100AB8EE9E
:100DA000411A9DED022A9FED623A82EE032A31EE4E
:100DB000021AB7EE002A31EE021A20EE010A8DED7A
:100DC000010AFFE76BE09DED050AB8EE401A9FEDC2
:100DD000590A80EE010A44F23840C5F60200006864
:100DE0006FF35F2001EE100AB8EE411A9DED022A62
:100DF0009FED4F3A82EE032A31EE021AB7EE002A37
:100E000031EE021A20EE010A8DED010A47E09DED58
:100E1000050AB8EE401A9FED450A80EE010A44F239
:100E20003840C5F6020000686FF35F2001EE100A3B
:100E3000B8EE411A9DED022A9FED3D3A82EE032A5B
:100E400031EE021AB7EE002A31EE021A20EE010A44
:100E50008DED010A23E09DED050AB8EE401A9FEDE5
:100E6000350A80EE010A44F23840C5F602000068F7
:100E70006FF35F2001EE100AB8EE411A9DED022AD1
:100E80009FED2B3A82EE032A31EE021AB7EE002ACA
:100E900031EE021A20EE010A8DED010AFFE79DED09
:100EA000010A44F23840C5F60200016889B2490AD5
:100EB00001EE101AB8EE411AB7EE002A31EE021A0E
:100EC00080EE010A0799BCEEC00A81ED000A9DED93
:100ED000010A0168C1F3064101EE101AB8EE411A89
:100EE00031EE021A80EE010A0799BCEEC00A81EDCC
:100EF000010A9DED010A0068C0F3066001EE100AC8
:100F0000B8EE411A31EE021A80EE010A0798BCEEE3
:100F1000C00A80ED020A07E00799002008600799DF
:100F2000486007998860FFE708B0704720BCBE4B57
:100F3000000000460024744A0024744C00000000A5
:100F400088B0079044F22840C5F60200016801F01D
:100F5000030106910068C0F30550059044F22C404F
:100F6000C5F602000068C0F300200490049844F223
:100F70004441C5F60201096889B2C908484300EE38
:100F8000100AB8EE400A8DED020A0598002800F01C
:100F90001B81FFE70698009048B1FFE70098012801
:100FA00069D0FFE70098022800F08980ABE044F2A6
:100FB0000040C5F60200006800F020010020B0EB00
:100FC000511F33D0FFE744F20040C5F6020000682D
:100FD000C0F3C10149F20000C0F2D030C840039014
:100FE0009DED030AB8EE400A9DED051AB8EE411AD0
:100FF00080EE010A44F24040C5F6020000686FF33B
:101000005F2001EE100AB8EE411A9DED022A9FED15
:10101000743A82EE032A31EE021AB7EE002A31EE5C
:10102000021A20EE010A8DED010A23E09DED050A6A
:10103000B8EE401A9FED6C0A80EE010A44F240407F
:10104000C5F6020000686FF35F2001EE100AB8EEEB
:10105000411A9DED022A9FED623A82EE032A31EE9B
:10106000021AB7EE002A31EE021A20EE010A8DEDC7
:10107000010AFFE76BE09DED050AB8EE401A9FED0F
:10108000590A80EE010A44F24040C5F602000068A9
:101090006FF35F2001EE100AB8EE411A9DED022AAF
:1010A0009FED4F3A82EE032A31EE021AB7EE002A84
:1010B00031EE021A20EE010A8DED010A47E09DEDA6
:1010C000050AB8EE401A9FED450A80EE010A44F287
:1010D0004040C5F6020000686FF35F2001EE100A81
:1010E000B8EE411A9DED022A9FED3D3A82EE032AA9
:1010F00031EE021AB7EE002A31EE021A20EE010A92
:101100008DED010A23E09DED050AB8EE401A9FED32
:10111000350A80EE010A44F24040C5F6020000683C
:101120006FF35F2001EE100AB8EE411A9DED022A1E
:101130009FED2B3A82EE032A31EE021AB7EE002A17
:1011400031EE021A20EE010A8DED010AFFE79DED56
:10115000010A44F24040C5F60200016889B2490A1A
:1011600001EE101AB8EE411AB7EE002A31EE021A5B
:1011700080EE010A0799BCEEC00A81ED000A9DEDE0
:10118000010A0168C1F3064101EE101AB8EE411AD6
:1011900031EE021A80EE010A0799BCEEC00A81ED19
:1011A000010A9DED010A0068C0F3066001EE100A15
:1011B000B8EE411A31EE021A80EE010A0798BCEE31
:1011C000C00A80ED020A07E007990020086007992D
:1011D000486007998860FFE708B0704720BCBE4BA5
:1011E000000000460024744A0024744C00000000F3
:1011F00080B59AB0189000208DF857008DF85600F1
:101200001898C0780007002848D5FFE71898806E26
:10121000149078B1FFE71498B0F5801F13D0FFE762
:101220001498B0F5001F16D0FFE71498B0F5401FD2
:1012300019D019E044F22C41C5F60201086840F4C7
:101240000030086014E018980830022102F0F4FD24
:101250008DF857000CE018982830022102F0D4FED7
:101260008DF8570004E003E001208DF85700FFE7F8
:101270009DF8570060B9FFE744F25041C5F60201FE
:10128000086820F44010189A926E1043086004E039
:101290009DF857008DF85600FFE7FFE71898407853
:1012A000C007002840D0FFE71898806D13900428ED
:1012B00020D81399DFE801F0030C141C1D0044F240
:1012C0002C41C5F60201086840F40030086015E0C2
:1012D00018980830002102F0AFFD8DF857000DE09E
:1012E00018982830002102F08FFE8DF8570005E095
:1012F00004E003E001208DF85700FFE79DF8570058
:1013000060B9FFE744F25041C5F60201086820F0D9
:101310000700189A926D1043086004E09DF857008A
:101320008DF85600FFE7FFE71898407880070028FF
:101330004BD5FFE71898C06D129088B1FFE712985F
:10134000402816D0FFE7129880281AD0FFE712989D
:10135000C0281ED0FFE71298B0F5807F1AD01AE09F
:1013600044F22C41C5F60201086840F400300860E0
:1013700015E018980830002102F05EFD8DF8570046
:101380000DE018982830002102F03EFE8DF857003D
:1013900005E004E003E001208DF85700FFE79DF829
:1013A000570060B9FFE744F25041C5F602010868F2
:1013B00020F4E070189AD26D1043086004E09DF8A4
:1013C00057008DF85600FFE7FFE718984078400770
:1013D000002850D5FFE71898D0F8A8001190A0B1C8
:1013E000FFE71198B0F5001F18D0FFE71198B0F58E
:1013F000800F1BD0FFE71198B0F5C00F1ED0FFE79C
:101400001198B0F5000F1AD01AE044F22C41C5F63D
:101410000201086840F40030086015E018980830B0
:10142000002102F009FD8DF857000DE018982830D2
:10143000002102F0E9FD8DF8570005E004E003E02B
:1014400001208DF85700FFE79DF8570068B9FFE7C6
:1014500044F25841C5F60201086820F46000189A69
:10146000D2F8A8201043086004E09DF857008DF8DA
:101470005600FFE7FFE7189840780007002850D58E
:10148000FFE71898D0F8AC001090A0B1FFE71098D3
:10149000B0F1807F18D0FFE71098B0F1007F1BD02B
:1014A000FFE71098B0F1407F1ED0FFE71098B0F131
:1014B000806F1AD01AE044F22C41C5F60201086888
:1014C00040F40030086015E018980830002102F060
:1014D000B3FC8DF857000DE018982830002102F079
:1014E00093FD8DF8570005E004E003E001208DF83E
:1014F0005700FFE79DF8570068B9FFE744F25841ED
:10150000C5F60201086820F0E060189AD2F8AC2015
:101510001043086004E09DF857008DF85600FFE77F
:10152000FFE71898C078800700283ED5FFE7189895
:10153000C06C0F90F0B1FFE70F98102808D0FFE7BC
:101540000F9820280DD0FFE70F98302811D012E017
:1015500044F22C41C5F60201086840F400300860EE
:101560000DE018980830022102F066FC8DF8570053
:1015700005E004E003E001208DF85700FFE79DF847
:10158000570060B9FFE744F24C41C5F60201086814
:1015900020F03000189AD26C1043086004E09DF8E7
:1015A00057008DF85600FFE7FFE718984078C0060F
:1015B00000284ED5FFE71898006E0E90A0B1FFE707
:1015C0000E98B0F5805F18D0FFE70E98B0F5005F79
:1015D0001BD0FFE70E98B0F5405F1ED0FFE70E98D6
:1015E000B0F5804F1AD01AE044F22C41C5F6020142
:1015F000086840F40030086015E0189808300021B1
:1016000002F01AFC8DF857000DE0189828300021E0
:1016100002F0FAFC8DF8570005E004E003E0012039
:101620008DF85700FFE79DF8570060B9FFE744F2D7
:101630005041C5F60201086820F4E040189A126E85
:101640001043086004E09DF857008DF85600FFE74E
:10165000FFE718984078800600284CD5FFE71898D7
:10166000406E0D90C8B1FFE70D98B0F5803F15D0E2
:10167000FFE70D98B0F5003F18D0FFE70D98B0F5E3
:10168000403F1BD0FFE70D98B0F5802F17D0FFE744
:101690000D98B0F5A02F13D013E016E0189808307D
:1016A000012102F0C9FB8DF857000EE01898283090
:1016B000012102F0A9FC8DF8570006E005E004E0E6
:1016C00003E001208DF85700FFE79DF8570060B94F
:1016D000FFE744F25041C5F60201086820F4E0201B
:1016E000189A526E1043086004E09DF857008DF878
:1016F0005600FFE7FFE718984078400600284ED5CF
:10170000FFE71898D0F8B0000C90C8B1FFE70C982C
:10171000B0F1805F15D0FFE70C98B0F1005F18D0F2
:10172000FFE70C98B0F1405F1BD0FFE70C98B0F1D9
:10173000804F17D0FFE70C98B0F1A04F13D013E003
:1017400016E018980830012102F076FB8DF857005A
:101750000EE018982830012102F056FC8DF8570051
:1017600006E005E004E003E001208DF85700FFE704
:101770009DF8570068B9FFE744F25841C5F60201E9
:10178000086820F0E040189AD2F8B02010430860B2
:1017900004E09DF857008DF85600FFE7FFE7189822
:1017A0004078000600283BD5FFE71898006F0B90A3
:1017B000D8B1FFE70B98B0F1805F05D0FFE70B9839
:1017C000B0F1005F09D011E044F22C41C5F60201EE
:1017D000086840F4003008600CE0189808300121D7
:1017E00002F02AFB8DF8570004E003E001208DF899
:1017F0005700FFE79DF8570060B9FFE744F25041FA
:10180000C5F60201086820F04050189A126F104384
:10181000086004E09DF857008DF85600FFE7FFE7E9
:101820001898C078C007002837D0FFE71898806C58
:101830000A90032817D80A99DFE801F014020B1365
:1018400044F22C41C5F60201086840F400300860FB
:101850000DE018980830022102F0EEFA8DF85700DA
:1018600005E004E003E001208DF85700FFE79DF854
:10187000570060B9FFE744F24C41C5F60201086821
:1018800020F00300189A926C1043086004E09DF861
:1018900057008DF85600FFE7FFE71898807840065C
:1018A000002840F1B480FFE744F60001C5F60201CC
:1018B000086840F480700860FFF736F81690FFE77C
:1018C00044F60000C5F602000068C00500280CD4EC
:1018D000FFE7FFF729F81699401A652804D3FFE7B8
:1018E00003208DF8570000E0EAE79DF85700002834
:1018F00040F08780FFE744F27040C5F602000068C0
:1019000000F440701899D1F8B41001F44071884285
:1019100013D0FFE744F27041C5F60201086820F4D5
:1019200040701790086840F480300860086820F420
:101930008030086017980860FFE71898D0F8B40066
:10194000B0F5807F1FD1FFE7FEF7EEFF1690FFE7AF
:1019500044F27040C5F60200006800F00201002069
:10196000B0EB510F0ED1FFE7FEF7DEFF1699401ADC
:1019700041F28931884204D3FFE703208DF85700F4
:1019800000E0E5E7FFE79DF85700A0BBFFE7FFE7B2
:101990001898D0F8B40000F44070B0F5407F13D12F
:1019A000FFE744F21041C5F60201086820F47C50BC
:1019B000189AD2F8B4204FF6F043C0F6FF731A40DD
:1019C00040EA1210086008E044F21041C5F6020136
:1019D000086820F47C500860FFE71898D0F8B4201D
:1019E0006FF31F3244F27041C5F6020108681043DC
:1019F0000860FFE704E09DF857008DF85600FFE708
:101A000004E09DF857008DF85600FFE7FFE71898AF
:101A10000068C007002800F04C80FFE71898C06FEE
:101A2000099028282BD80999DFE801F015292929E0
:101A30002929292916292929292929291E29292934
:101A4000292929292629292929292929272929290B
:101A500029292929280016E018980830012102F0C8
:101A6000EBF98DF857000EE018982830012102F0AC
:101A7000CBFA8DF8570006E005E004E003E0012012
:101A80008DF85700FFE79DF8570060B9FFE744F273
:101A90005441C5F60201086820F03800189AD26F48
:101AA0001043086004E09DF857008DF85600FFE7EA
:101AB000FFE7189800788007002839D5FFE71898C5
:101AC000806F0890052819D80899DFE801F0030411
:101AD0000C14151616E018980830012102F0ACF924
:101AE0008DF857000EE018982830012102F08CFA8A
:101AF0008DF8570006E005E004E003E001208DF8D2
:101B00005700FFE79DF8570060B9FFE744F25441E2
:101B1000C5F60201086820F00700189A926F10437A
:101B2000086004E09DF857008DF85600FFE7FFE7D6
:101B300018980078400700283BD5FFE71898D0F8A0
:101B400094000790052819D80799DFE801F00304ED
:101B50000C14151616E018980830012102F06CF9E3
:101B60008DF857000EE018982830012102F04CFA49
:101B70008DF8570006E005E004E003E001208DF851
:101B80005700FFE79DF8570068B9FFE744F2584156
:101B9000C5F60201086820F00700189AD2F89420D0
:101BA0001043086004E09DF857008DF85600FFE7E9
:101BB000FFE718980078800600284ED5FFE71898B0
:101BC000D0F890000690C8B1FFE70698B0F1805FAA
:101BD00015D0FFE70698B0F1005F18D0FFE7069830
:101BE000B0F1405F1BD0FFE70698B0F1804F17D0EF
:101BF000FFE70698B0F1A04F13D013E016E0189855
:101C00000830002102F018F98DF857000EE01898FE
:101C10002830022102F0F8F98DF8570006E005E0BF
:101C200004E003E001208DF85700FFE79DF857001E
:101C300068B9FFE744F25441C5F60201086820F094
:101C4000E040189AD2F890201043086004E09DF814
:101C500057008DF85600FFE7FFE718980078400618
:101C600000284ED5FFE71898D0F89C000590C8B121
:101C7000FFE70598B0F5806F15D0FFE70598B0F540
:101C8000006F18D0FFE70598B0F5406F1BD0FFE755
:101C90000598B0F5805F17D0FFE70598B0F5A05F15
:101CA00013D013E016E018980830002102F0C4F8B1
:101CB0008DF857000EE018982830022102F0A4F9A0
:101CC0008DF8570006E005E004E003E001208DF800
:101CD0005700FFE79DF8570068B9FFE744F2584105
:101CE000C5F60201086820F4E050189AD2F89C204A
:101CF0001043086004E09DF857008DF85600FFE798
:101D0000FFE718980078000600284ED5FFE71898DE
:101D1000D0F8A0000490C8B1FFE70498B0F5005FC8
:101D200015D0FFE70498B0F5804F18D0FFE704986E
:101D3000B0F5C04F1BD0FFE70498B0F5004F17D0A7
:101D4000FFE70498B0F5204F13D013E016E0189881
:101D50000830002102F070F88DF857000EE0189856
:101D60002830022102F050F98DF8570006E005E016
:101D700004E003E001208DF85700FFE79DF85700CD
:101D800068B9FFE744F25841C5F60201086820F43B
:101D90006040189AD2F8A0201043086004E09DF833
:101DA00057008DF85600FFE7FFE718980078000706
:101DB000002820D5FFE71898D0F88400B0F5805FA0
:101DC0000CD1FFE718982830022102F01DF920B14C
:101DD000FFE701208DF85600FFE7FFE744F254418A
:101DE000C5F60201086820F44050189AD2F8842001
:101DF00010430860FFE718980078C006002820D537
:101E0000FFE71898D0F89800B0F5807F0CD1FFE775
:101E100018982830022102F0F7F820B1FFE70120DE
:101E20008DF85600FFE7FFE744F25841C5F602017E
:101E3000086820F44070189AD2F89820104308607F
:101E4000FFE718988078000700283CD5FFE718982E
:101E5000D0F8A400039050B1FFE70398B0F5803F9D
:101E60000DD0FFE70398B0F5003F10D010E01898B0
:101E70000830002101F0E0FF8DF857000CE01898C1
:101E80002830022102F0C0F88DF8570004E003E08A
:101E900001208DF85700FFE79DF8570068B9FFE76C
:101EA00044F25841C5F60201086820F44030189AFF
:101EB000D2F8A4201043086004E09DF857008DF884
:101EC0005600FFE7FFE718988078400700283FD5C5
:101ED000FFE71898D0F888000290B0F5801F0AD06C
:101EE000FFE70298B0F5001F0ED0FFE70298B0F5AB
:101EF000401F11D011E044F22C41C5F602010868E0
:101F000040F4003008600CE018982830012102F0FD
:101F10007BF88DF8570004E003E001208DF85700AE
:101F2000FFE79DF8570068B9FFE744F25441C5F652
:101F30000201086820F44010189AD2F88820104353
:101F4000086004E09DF857008DF85600FFE7FFE7B2
:101F500018988078C007A8B3FFE71898006D019023
:101F600028B1FFE70198B0F5803F09D010E044F2B6
:101F70002C41C5F60201086840F4003008600BE00F
:101F800018980830022101F057FF8DF8570003E040
:101F900001208DF85700FFE79DF8570060B9FFE773
:101FA00044F24C41C5F60201086820F48030189ACA
:101FB000126D1043086004E09DF857008DF856003C
:101FC000FFE7FFE71898C078800600280CD5FFE7E8
:101FD00018982830022102F017F820B1FFE70120FD
:101FE0008DF85600FFE7FFE71898807880070028F3
:101FF0003CD5FFE71898D0F880000090D0B1FFE7FB
:102000000098B0F5807F0AD0FFE70098B0F5007F18
:102010000ED0FFE70098B0F5407F0AD00BE044F205
:102020002C41C5F60201086840F40030086006E063
:1020300005E004E003E001208DF85700FFE79DF87C
:10204000570068B9FFE744F25441C5F60201086839
:1020500020F44070189AD2F880201043086004E001
:102060009DF857008DF85600FFE7FFE71898807835
:10207000C00600280CD5FFE744F25041C5F6020126
:10208000086820F00040189A526F10430860FFE77C
:102090001898C078C00600280DD5FFE744F210411B
:1020A000C5F60201086820F48040189AD2F8B820DA
:1020B00010430860FFE718988078800600280CD548
:1020C000FFE744F25041C5F60201086820F0807035
:1020D000189AD26E10430860FFE71898C07840063F
:1020E000002811D5FFE7FFE744F21041C5F60201D1
:1020F000086820F4004008601898D0F8BC200868F0
:1021000010430860FFE7FFE71898C0780006002832
:102110000CD5FFE744F24C41C5F60201086820F0F7
:102120004050189A526D10430860FFE71898807865
:10213000000600280DD5FFE744F25441C5F6020120
:10214000086820F44000189AD2F88C2010430860E8
:10215000FFE718980079C00790B1FFE7189808309A
:10216000002101F069FE8DF857009DF8570008B96D
:10217000FFE704E09DF857008DF85600FFE7FFE702
:10218000189800798007002812D5FFE718980830C2
:10219000012101F051FE8DF857009DF8570008B954
:1021A000FFE704E09DF857008DF85600FFE7FFE7D2
:1021B000189800794007002812D5FFE718980830D2
:1021C000022101F039FE8DF857009DF8570008B93B
:1021D000FFE704E09DF857008DF85600FFE7FFE7A2
:1021E000189800790007002812D5FFE718982830C2
:1021F000002101F009FF8DF857009DF8570008B93C
:10220000FFE704E09DF857008DF85600FFE7FFE771
:1022100018980079C006002812D5FFE718982830D2
:10222000012101F0F1FE8DF857009DF8570008B923
:10223000FFE704E09DF857008DF85600FFE7FFE741
:10224000189800798006002812D5FFE718982830E2
:10225000022101F0D9FE8DF857009DF8570008B90A
:10226000FFE704E09DF857008DF85600FFE7FFE711
:102270009DF8560020B9FFE700208DF8670003E0C5
:1022800001208DF86700FFE79DF867001AB080BD58
:1022900080B586B004900391049820B9FFE701202F
:1022A0008DF817003CE2039842F20001C5F20021CC
:1022B000096801F00F01884216D9FFE742F20000D9
:1022C000C5F20020016821F00F01039A114301605B
:1022D000006800F00F000399884204D0FFE7012056
:1022E0008DF817001CE2FFE70498007840070028EB
:1022F00019D5FFE70498006944F21841C5F60201B8
:10230000096801F0700188420CD9FFE744F21841D6
:10231000C5F60201086820F07000049A12691043A3
:102320000860FFE7FFE7049800780007002819D548
:10233000FFE70498406944F21C41C5F602010968B0
:1023400001F0700188420CD9FFE744F21C41C5F648
:102350000201086820F07000049A52691043086076
:10236000FFE7FFE704980078C006002819D5FFE7CB
:102370000498806944F21C41C5F60201096801F421
:10238000E06188420CD9FFE744F21C41C5F6020126
:10239000086820F4E060049A926910430860FFE73F
:1023A000FFE7049800788006002819D5FFE7049815
:1023B000C06944F22041C5F60201096801F07001CC
:1023C00088420CD9FFE744F22041C5F602010868B3
:1023D00020F07000049AD26910430860FFE7FFE71D
:1023E000049800788007002819D5FFE70498C06892
:1023F00044F21841C5F60201096801F00F01884254
:102400000CD9FFE744F21841C5F60201086820F034
:102410000F00049AD26810430860FFE7FFE70498B2
:102420000078C007002800F08C80FFE744F21841D4
:10243000C5F60201086820F47060049A926810439F
:10244000086004984068022811D1FFE744F2004078
:10245000C5F60200006800F400310020B0EB514FD7
:1024600004D1FFE701208DF8170059E13EE0049800
:102470004068032811D1FFE744F20040C5F602008E
:10248000006800F000710020B0EB516F04D1FFE74D
:1024900001208DF8170043E127E0049840680128E7
:1024A00011D1FFE744F20040C5F60200006800F4D5
:1024B00080710020B0EB112F04D1FFE701208DF8CF
:1024C00017002DE110E044F20040C5F6020000685C
:1024D00000F004010020B0EB910F04D1FFE70120D0
:1024E0008DF817001CE1FFE7FFE7FFE744F210411A
:1024F000C5F60201086820F00700049A52681043EC
:102500000860FEF711FA0190FFE744F21040C5F6AB
:102510000200006800F0380004994968B0EBC10F70
:102520000ED0FFE7FEF700FA0199401A41F2893117
:10253000884204D3FFE703208DF81700F0E0E4E7BA
:10254000FFE7049800788007002819D5FFE7049872
:10255000C06844F21841C5F60201096801F00F0194
:1025600088420CD2FFE744F21841C5F60201086820
:1025700020F00F00049AD26810430860FFE7FFE7DD
:10258000039842F20001C5F20021096801F00F0131
:10259000884216D2FFE742F20000C5F2002001682F
:1025A00021F00F01039A11430160006800F00F0051
:1025B0000399884204D0FFE701208DF81700AFE0AF
:1025C000FFE7049800784007002819D5FFE7049832
:1025D000006944F21841C5F60201096801F0700172
:1025E00088420CD2FFE744F21841C5F602010868A0
:1025F00020F07000049A126910430860FFE7FFE7BB
:10260000049800780007002819D5FFE7049840696E
:1026100044F21C41C5F60201096801F070018842CC
:102620000CD2FFE744F21C41C5F60201086820F015
:102630007000049A526910430860FFE7FFE70498AE
:102640000078C006002819D5FFE70498806944F295
:102650001C41C5F60201096801F4E06188420CD210
:10266000FFE744F21C41C5F60201086820F4E0606F
:10267000049A926910430860FFE7FFE70498007826
:102680008006002819D5FFE70498C06944F220416C
:10269000C5F60201096801F0700188420CD2FFE71B
:1026A00044F22041C5F60201086820F07000049A47
:1026B000D26910430860FFE7FFE700F089F844F2B1
:1026C0001842C5F602021168C1F3032345F22E61D8
:1026D000C0F60001CB5C03F01F03D84000900098C7
:1026E000126802F00F02895C01F01F01C84040F23D
:1026F0000401C2F200410860009840F20001C2F2F9
:102700000041086040F20C00C2F200400068FEF791
:1027100063F98DF80B009DF80B008DF81700FFE7AB
:102720009DF8170006B080BD80B582B000F050F86B
:1027300044F21842C5F602021168C1F3032345F2C0
:102740002E61C0F60001CB5C03F01F03D84001905E
:102750000198126802F00F02895C01F01F0120FA53
:1027600001F140F20400C2F200400160019940F220
:102770000002C2F200421160006802B080BD000099
:1027800080B5FFF7D1FF44F21C41C5F6020109688C
:10279000C1F3021245F22E61C0F60001895C01F01E
:1027A0001F01C84080BD000080B5FFF7BDFF44F2A7
:1027B0001C41C5F602010968C1F3022245F22E61EF
:1027C000C0F60001895C01F01F01C84080BD000017
:1027D0008AB044F21040C5F60200006800F03800EC
:1027E00001460191182800F269810199DFE811F092
:1027F00019006601660166016601660166016601EF
:102800003A006601660166016601660166016601BD
:1028100040006601660166016601660166016601A7
:10282000460044F20040C5F60200006800F02001B6
:102830000020B0EB511F0ED0FFE744F20040C5F678
:1028400002000068C0F3C10149F20000C0F2D030BC
:10285000C840029005E049F20000C0F2D03002907A
:10286000FFE731E140F60010C0F23D0002902BE19D
:1028700047F64000C0F27D10029025E144F2284066
:10288000C5F60200016801F0030108910068C0F379
:102890000510079044F22C40C5F60200006800F0D5
:1028A00001000690069844F23441C5F60201096819
:1028B00089B2C908484300EE100AB8EE400A8DED0F
:1028C000040A0798002800F0F580FFE708980090B8
:1028D00048B1FFE70098012869D0FFE70098022877
:1028E00000F08980ABE044F20040C5F602000068C9
:1028F00000F020010020B0EB511F33D0FFE744F27D
:102900000040C5F602000068C0F3C10149F20000B2
:10291000C0F2D030C84005909DED050AB8EE400ADF
:102920009DED071AB8EE411A80EE010A44F23040DC
:10293000C5F6020000686FF35F2001EE100AB8EEE2
:10294000411A9DED042A9FED633A82EE032A31EE8F
:10295000021AB7EE002A31EE021A20EE010A8DEDBE
:10296000030A23E09DED070AB8EE401A9FED5B0ACB
:1029700080EE010A44F23040C5F6020000686FF3B1
:102980005F2001EE100AB8EE411A9DED042A9FED7A
:10299000513A82EE032A31EE021AB7EE002A31EEE6
:1029A000021A20EE010A8DED030AFFE76BE09DEDB0
:1029B000070AB8EE401A9FED480A80EE010A44F279
:1029C0003040C5F6020000686FF35F2001EE100A88
:1029D000B8EE411A9DED042A9FED3E3A82EE032A9D
:1029E00031EE021AB7EE002A31EE021A20EE010A89
:1029F0008DED030A47E09DED070AB8EE401A9FED02
:102A0000340A80EE010A44F23040C5F60200006844
:102A10006FF35F2001EE100AB8EE411A9DED042A13
:102A20009FED2C3A82EE032A31EE021AB7EE002A0D
:102A300031EE021A20EE010A8DED030A23E09DED2E
:102A4000070AB8EE401A9FED240A80EE010A44F20C
:102A50003040C5F6020000686FF35F2001EE100AF7
:102A6000B8EE411A9DED042A9FED1A3A82EE032A30
:102A700031EE021AB7EE002A31EE021A20EE010AF8
:102A80008DED030AFFE744F23040C5F6020000680E
:102A900081B2012000EB512009909DED030A9DEDCC
:102AA000091AB8EE411A80EE010ABCEEC00A8DED9B
:102AB000020A02E000200290FFE705E040F6001065
:102AC000C0F23D000290FFE702980AB0704700BFD5
:102AD00020BCBE4B000000460024744A0024744C05
:102AE00080B58CB00A900A9828B9FFE701208DF8CC
:102AF0002F0000F09DBD0A980078C007002800F064
:102B0000B980FFE744F21040C5F60200006800F00B
:102B10003800069044F22840C5F60200006805908F
:102B2000069810280AD0FFE7069818281CD1FFE75E
:102B3000059800F00300022816D1FFE744F2004098
:102B4000C5F60200006800F400310020B0EB514FE0
:102B500009D0FFE70A98406828B9FFE701208DF8FF
:102B60002F0000F065BD84E0FFE70A984068B0F5EB
:102B7000803F09D1FFE744F20041C5F60201086831
:102B800040F48030086032E00A98406868B9FFE796
:102B900044F20041C5F60201086820F48030086064
:102BA000086820F48020086020E00A984068B0F5AA
:102BB000A02F0DD1FFE744F20041C5F602010868DD
:102BC00040F480200860086840F4803008600CE021
:102BD00044F20041C5F60201086820F48030086024
:102BE000086820F480200860FFE7FFE7FFE7FFE7C1
:102BF0000A984068F0B1FFE7FDF796FE0990FFE7FD
:102C000044F20040C5F60200006800F400310020E4
:102C1000B0EB514F0DD1FFE7FDF786FE0999401A41
:102C2000652805D3FFE703208DF82F0000F000BDD5
:102C3000E6E71DE0FDF778FE0990FFE744F200406B
:102C4000C5F60200006800F400310020B0EB514FDF
:102C50000DD0FFE7FDF768FE0999401A652805D3F6
:102C6000FFE703208DF82F0000F0E2BCE6E7FFE766
:102C7000FFE7FFE70A9800788007002840F11681F7
:102C8000FFE744F21040C5F60200006800F038008B
:102C9000049044F22840C5F60200006803900498AE
:102CA00050B1FFE70498182878D1FFE79DF80C0091
:102CB0008007002872D1FFE744F20040C5F6020009
:102CC000006800F004010020B0EB910F09D0FFE78D
:102CD0000A98C06828B9FFE701208DF82F0000F09E
:102CE000A7BC44F20041C5F60201086820F01900B3
:102CF0000A9AD26810430860FDF716FE0990FFE7B4
:102D000044F20040C5F60200006800F00401002013
:102D1000B0EB910F0DD1FFE7FDF706FE0999401AC0
:102D2000032805D3FFE703208DF82F0000F080BCB7
:102D3000E6E7FFE7FDF7F0FD41F2030188421DD809
:102D4000FFE70A98006940280AD1FFE744F20441EE
:102D5000C5F602010868202262F3113008600CE019
:102D600044F20441C5F60201086820F47C300A9A56
:102D7000126940EA02300860FFE70CE044F20441C7
:102D8000C5F60201086820F0FE400A9A126940EA7E
:102D900002600860FFE7FFE7FFE786E00A98C06887
:102DA00000285CD0FFE744F20041C5F60201086844
:102DB00020F019000A9AD26810430860FDF7B4FDAC
:102DC0000990FFE744F20040C5F60200006800F0F9
:102DD00004010020B0EB910F0DD1FFE7FDF7A4FD3A
:102DE0000999401A032805D3FFE703208DF82F0027
:102DF00000F01EBCE6E7FFE7FDF78EFD41F20301A0
:102E000088421DD8FFE70A98006940280AD1FFE7E9
:102E100044F20441C5F602010868202262F3113031
:102E200008600CE044F20441C5F60201086820F491
:102E30007C300A9A126940EA02300860FFE70CE031
:102E400044F20441C5F60201086820F0FE400A9AE7
:102E5000126940EA02600860FFE7FFE724E044F2FD
:102E60000041C5F60201086820F001000860FDF786
:102E70005BFD0990FFE744F20040C5F602000068E0
:102E800000F004010020B0EB910F0CD0FFE7FDF73C
:102E90004BFD0999401A032804D3FFE703208DF85E
:102EA0002F00C5E3E7E7FFE7FFE7FFE70A980078B1
:102EB000C006002840F1EB80FFE744F21040C5F661
:102EC0000200006800F03800029044F22840C5F685
:102ED000020000680190029808280AD0FFE70298D3
:102EE000182850D1FFE7019800F0030001284AD1CB
:102EF000FFE744F20040C5F60200006800F480716C
:102F00000020B0EB112F09D0FFE70A98C069802894
:102F100004D0FFE701208DF82F0089E3FFE7FDF7DC
:102F2000FBFC41F2030188421DD8FFE70A98006AC2
:102F300020280AD1FFE744F20441C5F602010868DF
:102F4000102262F39E6008600CE044F20441C5F672
:102F50000201086820F0F8400A9A126A40EA82608A
:102F60000860FFE70CE044F20C41C5F60201086876
:102F700020F07C500A9A126A40EA02600860FFE77B
:102F8000FFE7FFE782E00A98C069002858D0FFE712
:102F900044F20041C5F60201086840F08000086074
:102FA000FDF7C2FC0990FFE744F20040C5F60200BD
:102FB000006800F480710020B0EB112F0CD1FFE706
:102FC000FDF7B2FC0999401A032804D3FFE7032058
:102FD0008DF82F002CE3E7E7FFE7FDF79DFC41F2BA
:102FE000030188421DD8FFE70A98006A20280AD109
:102FF000FFE744F20441C5F602010868102262F3BB
:103000009E6008600CE044F20441C5F602010868C5
:1030100020F0F8400A9A126A40EA82600860FFE7EE
:103020000CE044F20C41C5F60201086820F07C5027
:103030000A9A126A40EA02600860FFE7FFE724E0AC
:1030400044F20041C5F60201086820F080000860E3
:10305000FDF76AFC0990FFE744F20040C5F6020064
:10306000006800F480710020B0EB112F0CD0FFE756
:10307000FDF75AFC0999401A032804D3FFE70320FF
:103080008DF82F00D4E2E7E7FFE7FFE7FFE70A98B4
:103090000078000700284FD5FFE70A98406928B359
:1030A000FFE744F27441C5F60201086840F00100F0
:1030B0000860FDF739FC0990FFE744F27440C5F65B
:1030C0000200006800F002010020B0EB510F0CD1AB
:1030D000FFE7FDF729FC0999401A032804D3FFE70D
:1030E00003208DF82F00A3E2E7E724E044F27441C7
:1030F000C5F60201086820F001000860FDF714FC25
:103100000990FFE744F27440C5F60200006800F041
:1031100002010020B0EB510F0CD0FFE7FDF704FCDB
:103120000999401A032804D3FFE703208DF82F00E4
:103130007EE2E7E7FFE7FFE70A98007880060028CD
:103140004FD5FFE70A98806928B3FFE744F20041B2
:10315000C5F60201086840F480500860FDF7E4FB02
:103160000990FFE744F20040C5F60200006800F451
:1031700000510020B0EB513F0CD1FFE7FDF7D4FB2D
:103180000999401A032804D3FFE703208DF82F0084
:103190004EE2E7E724E044F20041C5F60201086888
:1031A00020F480500860FDF7BFFB0990FFE744F270
:1031B0000040C5F60200006800F400510020B0EBAA
:1031C000513F0CD0FFE7FDF7AFFB0999401A0328E8
:1031D00004D3FFE703208DF82F0029E2E7E7FFE79C
:1031E000FFE70A9800784007002840F1A780FFE732
:1031F00044F60001C5F60201086840F480700860DA
:10320000FDF792FB0990FFE744F60000C5F60200C7
:103210000068C00500280CD4FFE7FDF785FB09997D
:10322000401A652804D3FFE703208DF82F00FFE143
:10323000EAE7FFE70A988068012809D1FFE744F22E
:103240007041C5F60201086840F00100086031E0F5
:103250000A98806868B9FFE744F27041C5F6020138
:10326000086820F001000860086820F00400086089
:103270001FE00A98806805280DD1FFE744F27041ED
:10328000C5F60201086840F004000860086840F0D4
:10329000010008600CE044F27041C5F602010868C4
:1032A00020F001000860086820F004000860FFE7D3
:1032B000FFE7FFE7FFE70A988068F8B1FFE7FDF74F
:1032C00033FB0990FFE744F27040C5F60200006846
:1032D00000F002010020B0EB510F0ED1FFE7FDF727
:1032E00023FB0999401A41F28931884204D3FFE750
:1032F00003208DF82F009BE1E5E71EE0FDF714FBAE
:103300000990FFE744F27040C5F60200006800F043
:1033100002010020B0EB510F0ED0FFE7FDF704FBD8
:103320000999401A41F28931884204D3FFE703200A
:103330008DF82F007CE1E5E7FFE7FFE70A98406A98
:10334000002800F07181FFE744F21040C5F602004A
:10335000006800F03800182800F0E080FFE70A98C5
:10336000406A022840F0B480FFE744F20041C5F60D
:103370000201086820F080700860FDF7D5FA099016
:10338000FFE744F20040C5F60200006800F000715B
:103390000020B0EB516F0CD0FFE7FDF7C5FA09999B
:1033A000401A032804D3FFE703208DF82F003FE1E4
:1033B000E7E7FFE744F22841C5F60201086840F25A
:1033C000F33290430A9B9A6ADB6A42EA0312104383
:1033D00008600A99086BD1F834C08B6BCA6B01384E
:1033E0006FF35F204FF60061CFF6FF7101EB4C21C8
:1033F00089B208440021CFF6FF7101EB034101F4CB
:10340000FE0108444FF07F4101EB026101F0FE41F3
:10341000084444F23041C5F602010860FFE744F277
:103420002C41C5F602010091086820F001000860F7
:1034300044F23442C5F6020210684FF6F87398431E
:103440000A9B9B6C40EAC3001060086820F00C00E7
:103450000A9A126C10430860086820F002000A9A69
:10346000526C10430860086840F4803008600868B7
:1034700040F400300860086840F480200860086864
:1034800040F00100086044F20041C5F602010868FE
:1034900040F080700860FDF747FA0990FFE744F2BA
:1034A0000040C5F60200006800F000710020B0EB9B
:1034B000516F0CD1FFE7FDF737FA0999401A03283D
:1034C00004D3FFE703208DF82F00B1E0E7E724E005
:1034D00044F20041C5F60201086820F080700860DF
:1034E000FDF722FA0990FFE744F20040C5F602001A
:1034F000006800F000710020B0EB516F0CD0FFE7C6
:10350000FDF712FA0999401A032804D3FFE70320B4
:103510008DF82F008CE0E7E7FFE784E044F22840D5
:10352000C5F602000068089044F23040C5F602007B
:10353000006807900A98406A012837D0FFE708988A
:1035400000F003000A99896A88422FD1FFE70898A2
:1035500000F47C710A98C06AB0EB111F26D1FFE716
:1035600007986FF35F200A99096B013988421DD1D2
:10357000FFE7BDF81C100A98406B0138B0EB512FE3
:1035800014D1FFE7079800F4FE010A98806B013818
:10359000B0EB114F0AD1FFE7079800F0FE410A98FF
:1035A000C06B0138B0EB116F04D0FFE701208DF83C
:1035B0002F003DE044F23440C5F60200006880B2BE
:1035C000C00808900A98806C0899884229D0FFE7C3
:1035D00044F22C41C5F60201086820F001000860A1
:1035E000FDF7A2F90990FFE7FDF79EF90999401A46
:1035F00008B9FFE7F8E744F23441C5F6020108686C
:103600004FF6F87290430A9A926C40EAC200086042
:1036100044F22C41C5F60201086840F00100086040
:10362000FFE7FFE7FFE7FFE700208DF82F00FFE748
:103630009DF82F000CB080BD80B582B0019001983C
:1036400000F0CEFD02B080BD85B003900291FFE78F
:10365000039890F83C00012804D1FFE702208DF880
:10366000130099E00399012081F83C00FFE7FFE790
:103670000399022081F83D0003980068406801909A
:103680000398006880680090039800680021C4F2E5
:103690000101884209D0FFE70398006840F2004129
:1036A000C4F2010188420AD1FFE7019820F47000BA
:1036B000019002984168019808430190FFE7019842
:1036C00020F0700001900298016801980843019071
:1036D0000198039909684860039800680021C4F2C2
:1036E000010188423CD0FFE703980068B0F1804FA9
:1036F00036D0FFE70398006840F20041C4F20001B1
:1037000088422DD0FFE70398006840F60001C4F21C
:103710000001884224D0FFE70398006840F600418A
:10372000C4F2000188421BD0FFE70398006840F212
:103730000041C4F20101884212D0FFE703980068FB
:1037400041F60001C4F20001884209D0FFE7039866
:10375000006844F20001C4F2010188420ED1FFE783
:10376000009820F08000009002988168009808433B
:1037700000900098039909688860FFE70399012089
:1037800081F83D00FFE70399002081F83C00FFE746
:1037900000208DF81300FFE79DF8130005B0704777
:1037A00080B582B00090009820B9FFE701208DF825
:1037B000070045E0009890F83D0040B9FFE7009908
:1037C000002081F83C00009800F03EF8FFE70099E7
:1037D000022081F83D00009951F8040B00F08CFEA6
:1037E0000099012081F84800FFE70099012081F845
:1037F0003E00009981F83F00009981F8400000994F
:1038000081F84100009981F84200009981F8430055
:10381000FFE7FFE70099012081F84400009981F853
:103820004500009981F84600009981F84700FFE7BC
:103830000099012081F83D0000208DF80700FFE786
:103840009DF8070002B080BD82B001900198006829
:1038500041F20041C4F20001884210D1FFE7FFE7C6
:1038600044F2E840C5F60200016841F02001016021
:10387000006800F0200000900098FFE7FFE702B02A
:10388000704700000000000083B00190FFE701983E
:1038900090F88400012804D1FFE702208DF80B0086
:1038A0002CE00199012081F88400FFE7FFE70199EE
:1038B0002420C1F8880001980068006800900198F1
:1038C0000168086820F001000860009820F00050AE
:1038D00000900199002048660098019909680860E5
:1038E00001992020C1F88800FFE70199002081F8A4
:1038F0008400FFE700208DF80B00FFE79DF80B0028
:1039000003B070470000000080B584B002900191C0
:10391000FFE7029890F88400012804D1FFE7022015
:103920008DF80F0032E00299012081F88400FFE752
:10393000FFE702992420C1F8880002980068006817
:10394000009002980168086820F001000860029861
:103950000068806820F06060019908430299096856
:103960008860029800F098FE009802990968086043
:1039700002992020C1F88800FFE70299002081F811
:103980008400FFE700208DF80F00FFE79DF80F008F
:1039900004B080BD0000000080B584B002900191A9
:1039A000FFE7029890F88400012804D1FFE7022085
:1039B0008DF80F0032E00299012081F88400FFE7C2
:1039C000FFE702992420C1F8880002980068006887
:1039D000009002980168086820F0010008600298D1
:1039E0000068806820F060400199084302990968E6
:1039F0008860029800F050FE0098029909680860FB
:103A000002992020C1F88800FFE70299002081F880
:103A10008400FFE700208DF80F00FFE79DF80F00FE
:103A200004B080BD0000000080B582B00090009816
:103A300020B9FFE701208DF8070046E00098806973
:103A400008B1FFE700E0FFE70098D0F8880040B930
:103A5000FFE70099002081F88400009800F03CF80E
:103A6000FFE700992420C1F88800009801680868E1
:103A700020F001000860009800F0EAFF012804D15E
:103A8000FFE701208DF807001FE00098806A20B151
:103A9000FFE7009800F044FEFFE7009801684868DF
:103AA00020F49040486000980168886820F02A005F
:103AB000886000980168086840F00100086000987C
:103AC00000F0D2FE8DF80700FFE79DF8070002B076
:103AD00080BD00000000000080B5B8B03790002025
:103AE0003690359034903390329002A8C021FCF784
:103AF000BBFC3798006841F20001C4F20101884222
:103B00003DD1FFE70020039001210291219002A8FE
:103B1000FDF76EFB18B1FFE7FCF712FDFFE7FFE7CB
:103B200044F2F040C5F60200016841F01001016066
:103B3000006800F0100001900198FFE7FFE744F2F1
:103B4000E040C5F60200016841F002010160006832
:103B500000F0020000900098FFE74FF440403290E0
:103B6000022033900020349035900420369040F2AB
:103B70000040C5F6020032A9FCF7EAFCFFE738B0C6
:103B800080BD000000000000FFE7FEE7000000002D
:103B900080B58AB0002002900990089007900690A6
:103BA000FCF7AEFF0299012001908DF818008DF806
:103BB00019104FF01052079212228DF820208DF824
:103BC00021108DF82200032203928DF823208DF816
:103BD00024108DF825108DF826008DF8270006A8F2
:103BE0000490FCF73DFF019A029904988DF8192082
:103BF0004FF04052079210228DF820208DF82610A9
:103C00008DF82710FCF72CFF049802218DF819106D
:103C10000021C3F202010791FCF722FF03990498E7
:103C20008DF819100021C3F2040107910E218DF8BF
:103C30002010FCF715FF0498042105918DF8191048
:103C40004FF0605107910F218DF82010FCF708FF0D
:103C50000598FCF769FF0AB080BD00000000000075
:103C600083B0FFE744F2E040C5F60200016841F08E
:103C700080010160006800F0800002900298FFE778
:103C8000FFE744F2E040C5F60200016841F002019E
:103C90000160006800F0020001900198FFE7FFE773
:103CA00044F2E040C5F60200016841F00101016004
:103CB000006800F0010000900098FFE703B0704733
:103CC00080B584B0002103910291019140F270000F
:103CD000C2F2004041F20042C4F200020260EF2250
:103CE000426081604FF6FF72C2608161FFF758FD4C
:103CF00018B1FFE7FCF724FCFFE7002001900390D8
:103D000040F27000C2F2004001A9FFF79DFC18B11B
:103D1000FFE7FCF715FCFFE704B080BD00000000E2
:103D200080B582B040F2BC00C2F20040009041F287
:103D30000001C4F2010101604FF4E1314160002152
:103D400001918160C16001610C2242618161C161A8
:103D5000016241628162FFF767FE18B1FFE7FCF77D
:103D6000EFFBFFE740F2BC00C2F200400021FFF78A
:103D700013FE18B1FFE7FCF7E3FBFFE740F2BC00DE
:103D8000C2F200400021FFF7BFFD18B1FFE7FCF7CA
:103D9000D7FBFFE740F2BC00C2F20040FFF774FD22
:103DA00018B1FFE7FCF7CCFBFFE702B080BD0000D5
:103DB000FFE7FEE700000000FFE7FEE7000000006D
:103DC00088B0079006910592079800F007000490CC
:103DD0000498C0F10700052803D3FFE704200190F1
:103DE00004E00498C0F107000190FFE701980390F8
:103DF00004980430062803D8FFE70020009003E071
:103E0000049803380090FFE7009802900698039901
:103E1000012202FA01F101390840029B98400599FC
:103E20009A40013A1140084308B070470000000072
:103E3000704700000000000080B586B00490039138
:103E400000208DF8070044F22840C5F60200006803
:103E500000F00300032804D1FFE701208DF81700CC
:103E6000CBE044F20041C5F60201086820F0806012
:103E70000860FCF759FD0290FFE744F20040C5F6E8
:103E80000200006800F000610020B0EBD16F0CD0A0
:103E9000FFE7FCF749FD0299401A032804D3FFE726
:103EA00003208DF81700A8E0E7E7FFE744F2284178
:103EB000C5F60201086820F47C30049A126840EAD2
:103EC0000230086004994868D1F808C0CB680A69D4
:103ED00001386FF35F204FF60061CFF6FF7101EB01
:103EE0004C2189B208440021CFF6FF7101EB034158
:103EF00001F4FE0108444FF07F4101EB026101F043
:103F0000FE41084444F23841C5F602010860FFE76B
:103F100044F22C41C5F602010091086820F0C0006F
:103F2000049A526910430860086820F02000049A3F
:103F3000926910430860086820F01000086044F29D
:103F40003C42C5F6020210684FF6F8739843049B92
:103F5000DB6940EAC3001060086840F010000860A8
:103F6000039848B9FFE744F22C41C5F602010868FE
:103F700040F40020086016E00398012809D1FFE70B
:103F800044F22C41C5F60201086840F48010086034
:103F900008E044F22C41C5F60201086840F4001024
:103FA0000860FFE7FFE744F20041C5F60201086838
:103FB00040F080600860FCF7B7FC0290FFE744F235
:103FC0000040C5F60200006800F000610020B0EB80
:103FD000D16F0CD1FFE7FCF7A7FC0299401A032828
:103FE00004D3FFE703208DF8170006E0E7E7FFE7BB
:103FF0009DF807008DF81700FFE79DF8170006B041
:1040000080BD00000000000080B586B004900391E0
:1040100000208DF8070044F22840C5F60200006831
:1040200000F00300032804D1FFE701208DF81700FA
:10403000CBE044F20041C5F60201086820F0805050
:104040000860FCF771FC0290FFE744F20040C5F6FF
:104050000200006800F000510020B0EB517F0CD04E
:10406000FFE7FCF761FC0299401A032804D3FFE73D
:1040700003208DF81700A8E0E7E7FFE744F22841A6
:10408000C5F60201086820F07C70049A126840EAC4
:104090000250086004994868D1F808C0CB680A69E2
:1040A00001386FF35F204FF60061CFF6FF7101EB2F
:1040B0004C2189B208440021CFF6FF7101EB034186
:1040C00001F4FE0108444FF07F4101EB026101F071
:1040D000FE41084444F24041C5F602010860FFE792
:1040E00044F22C41C5F602010091086820F44060BA
:1040F000049A526910430860086820F40070049A1A
:10410000926910430860086820F48070086044F2E7
:104110004442C5F6020210684FF6F8739843049BB8
:10412000DB6940EAC3001060086840F480700860F2
:10413000039848B9FFE744F22C41C5F6020108682C
:1041400040F48000086016E00398012809D1FFE7D9
:1041500044F22C41C5F60201086840F400000860F2
:1041600008E044F22C41C5F60201086840F0807076
:104170000860FFE7FFE744F20041C5F60201086866
:1041800040F080500860FCF7CFFB0290FFE744F25C
:104190000040C5F60200006800F000510020B0EBBE
:1041A000517F0CD1FFE7FCF7BFFB0299401A0328AF
:1041B00004D3FFE703208DF8170006E0E7E7FFE7E9
:1041C0009DF807008DF81700FFE79DF8170006B06F
:1041D00080BD0000000000007047000000000000EB
:1041E00080B582B0009000980138B0F1807F03D391
:1041F000FFE70120019019E0009801384EF2140108
:10420000CEF2000108604FF0FF300F2101F040F9BD
:104210004EF21801CEF20001002008604EF21002AA
:10422000CEF20002072111600190FFE7019802B071
:1042300080BD00000000000080B5FCF77DFB80BD64
:1042400080B5A0B00DA84C21FCF70EF9002001901C
:104250000C900B900A90099008900790069005909A
:104260000220FCF7ADFCFFE70020049040F22C4058
:10427000C5F60000016821F001010160006800F04E
:104280000100049044F61800C5F60200016841F4EC
:1042900040410160006800F4404004900498FFE74A
:1042A000FFE744F61800C5F60200006800F400506D
:1042B000B0F5005F01D0FFE7F3E7FFE744F2F44019
:1042C000C5F60200016841F002010160006800F0DB
:1042D000020003900398FFE7FFE70020029044F6F6
:1042E0001800C5F60200016841F440410160006811
:1042F00000F44040029040F22C40C5F600000168F6
:1043000041F001010160006800F001000290029894
:10431000FFE7FFE744F61800C5F60200006800F466
:104320000050B0F5005F01D0FFE7F3E701200D90EA
:104330004FF480300E9002201690179005211891AE
:10434000C02119911A901B901C9008201D900020EC
:104350001E901F900DA8FEF7C3FB18B1FFE7FCF7F6
:10436000EFF8FFE73F20059003200690002007901C
:1043700008200890402009900A904FF480610B912A
:104380000C9005A80421FDF783FF18B1FFE7FCF7A7
:10439000D7F8FFE720B080BD81B04EF68851CEF24D
:1043A0000001086840F47000086042F20000C5F2A5
:1043B0000020006800F00F0006280AD8FFE742F24C
:1043C0000001C5F200210868072262F303000860BB
:1043D000FFE744F20041C5F60201086840F0010021
:1043E000086044F21042C5F602020020106008681E
:1043F0004EF67F52CEF6F6221040086042F20000E0
:10440000C5F20020006800F00F0008280AD3FFE77B
:1044100042F20001C5F200210868072262F303009E
:104420000860FFE744F21841C5F602010020009041
:10443000086044F21C41C5F60201086044F22041C4
:10444000C5F60201086044F22842C5F6020240F2B5
:104450000021C0F20221116044F22C42C5F6020292
:104460000021C0F2FF11116044F23042C5F6020291
:1044700040F28021C0F20111116044F23442C5F6CD
:104480000202106044F23842C5F60202116044F2A2
:104490003C42C5F60202106044F24042C5F60202F8
:1044A000116044F24441C5F60201086044F2004242
:1044B000C5F60202116821F48021116044F26041C6
:1044C000C5F60201086041F20001C5F60041096825
:1044D000B0EB517F07D1FFE748F20811C5F2001198
:1044E00001200860FFE744F20001C5F2002143F219
:1044F000D200086001B0704783B002900191029829
:104500000068009002980021C4F20101884225D081
:10451000FFE70298B0F1804F20D0FFE7029840F209
:104520000041C4F20001884218D0FFE7029840F62B
:104530000001C4F20001884210D0FFE7029840F663
:104540000041C4F20001884208D0FFE7029840F21F
:104550000041C4F2010188420AD1FFE7009820F02F
:104560007000009001984168009808430090FFE7B0
:1045700002980021C4F2010188423DD0FFE7029871
:10458000B0F1804F38D0FFE7029840F20041C4F20A
:104590000001884230D0FFE7029840F60001C4F2E3
:1045A0000001884228D0FFE7029840F60041C4F29B
:1045B0000001884220D0FFE7029840F20041C4F297
:1045C0000101884218D0FFE7029844F20001C4F2CA
:1045D0000101884210D0FFE7029844F20041C4F282
:1045E0000101884208D0FFE7029844F60001C4F2B6
:1045F000010188420AD1FFE7009820F44070009042
:104600000198C168009808430090FFE7009820F0E7
:104610008000019949690843009000980299086058
:10462000019880680299C8620198006802998862BE
:1046300002980021C4F20101884220D0FFE70298CD
:1046400040F20041C4F20101884218D0FFE702980D
:1046500044F20001C4F20101884210D0FFE7029841
:1046600044F20041C4F20101884208D0FFE70298F9
:1046700044F60001C4F20101884205D1FFE7019828
:10468000006902990863FFE702990120486103B0BD
:10469000704700000000000082B001900198406E59
:1046A00040B9FFE701990120A1F86A000199A1F83A
:1046B000680032E010208DF803008DF802000198A8
:1046C00000688068C0F342608DF8010001980068BE
:1046D0008068400F8DF800009DF802009DF80020D2
:1046E00045F24663C0F60003995C484345F23E61DB
:1046F000C0F600018A5CB0FBF2F0019AA2F86A00F1
:104700009DF803009DF801209B5C5843895CB0FB39
:10471000F1F00199A1F86800FFE702B070470000CE
:1047200081B00090009890F82800C00758B1FFE7CA
:1047300000980068406820F40030009A1168D26A3E
:1047400010434860FFE7009890F828008007002891
:104750000BD5FFE700980068406820F48030009A8D
:104760001168126B10434860FFE7009890F828002A
:10477000400700280BD5FFE700980068406820F448
:104780008020009A1168526B10434860FFE7009840
:1047900090F82800000700280BD5FFE70098006874
:1047A000406820F40040009A1168926B1043486002
:1047B000FFE7009890F82800C00600280BD5FFE717
:1047C00000980068806820F48050009A1168D26BCD
:1047D00010438860FFE7009890F8280080060028C2
:1047E0000BD5FFE700980068806820F40050009A1D
:1047F0001168126C10438860FFE7009890F8280059
:10480000400600281CD5FFE700980068406820F4A7
:104810008010009A1168526C104348600098406CF8
:10482000B0F5801F0BD1FFE700980068406820F4C6
:10483000C000009A1168926C10434860FFE7FFE7E0
:10484000009890F82800000600280BD5FFE7009894
:104850000068406820F40020009A1168D26C104370
:104860004860FFE701B0704780B588B006900699B0
:104870000020C1F89000FCF757F8059006980068F2
:104880000068000700282FD5FFE70698059B6A46B9
:104890006FF07E4111604FF40011002200F06CFDBA
:1048A00008B3FFE7FFE7FFE70698006850E8000F4E
:1048B00020F080000490FFE704990698026842E81F
:1048C00000100028F0D1FFE7FFE706992020C1F88B
:1048D0008800FFE70699002081F88400FFE70320A5
:1048E0008DF81F005FE0FFE706980068006840074A
:1048F000002842D5FFE70698059B6A466FF07E4187
:1049000011604FF48001002200F036FDA0B3FFE7F4
:10491000FFE7FFE70698006850E8000F20F490706A
:104920000390FFE703990698026842E80010002808
:10493000F0D1FFE7FFE7FFE7FFE70698006850E8E0
:10494000020F20F001000290FFE70299069802682A
:1049500042E802100028F0D1FFE7FFE70699202087
:10496000C1F88C00FFE70699002081F88400FFE77A
:1049700003208DF81F0016E0FFE706992020C1F8FC
:1049800088000699C1F88C0006990020C86606992F
:104990000867FFE70699002081F88400FFE7002000
:1049A0008DF81F00FFE79DF81F0008B080BD0000D4
:1049B00084B00390FFE7FFE70398006850E8000F1A
:1049C00020F490700290FFE702990398026842E891
:1049D00000100028F0D1FFE7FFE7FFE7FFE70398AB
:1049E000006850E8020F4FF6FE71CEF6FF710840E6
:1049F0000190FFE701990398026842E8021000283D
:104A0000EDD1FFE7FFE70398C06E012814D1FFE75F
:104A1000FFE7FFE70398006850E8000F20F0100060
:104A20000090FFE700990398026842E80010002810
:104A3000F0D1FFE7FFE7FFE703992020C1F88C00E2
:104A400003990020C8660399486704B070470000C6
:104A500080B59CB01B9000208DF85F001B9800680B
:104A600040F60041C5F60001884201D1FFE700E0B1
:104A7000FFE71B9988680B694A69C96918431043A5
:104A800008431A901B980068006846F6F311CCF6AC
:104A9000FF7108401A9908431B99096808601B9820
:104AA0000068406820F440501B9A1168D268104397
:104AB00048601B9880691A901B98006840F6004176
:104AC000C5F60001884206D0FFE71B98016A1A98D4
:104AD00008431A90FFE71B98006880684FF2FF4177
:104AE000C1F2FF1108401A9908431B9909688860B0
:104AF0001B980068C06A20F00F001B9A1168526A68
:104B00001043C862FFE71B98006841F20001C4F23D
:104B10000101884240F04180FFE744F25440C5F66D
:104B20000200006800F0380001460E9128282FD8B6
:104B30000E99DFE801F0152D2D2D2D2D2D2D192D80
:104B40002D2D2D2D2D2D1D2D2D2D2D2D2D2D212DB1
:104B50002D2D2D2D2D2D252D2D2D2D2D2D2D2900BE
:104B600001208DF8650017E004208DF8650013E042
:104B700008208DF865000FE010208DF865000BE02F
:104B800020208DF8650007E040208DF8650003E0E7
:104B900080208DF86500FFE7D6E11B98006844F29D
:104BA0000041C4F2000188422ED1FFE744F2544094
:104BB000C5F60200006800F0070001460D910528C7
:104BC0001DD80D99DFE801F003070B0F1317002024
:104BD0008DF8650017E004208DF8650013E00820CB
:104BE0008DF865000FE010208DF865000BE02020A7
:104BF0008DF8650007E040208DF8650003E0802017
:104C00008DF86500FFE79EE11B98006844F60001FF
:104C1000C4F2000188422ED1FFE744F25440C5F6A9
:104C20000200006800F0070001460C9105281DD81D
:104C30000C99DFE801F003070B0F131700208DF824
:104C4000650017E004208DF8650013E008208DF85A
:104C500065000FE010208DF865000BE020208DF836
:104C6000650007E040208DF8650003E080208DF8A6
:104C70006500FFE766E11B98006844F60041C4F256
:104C8000000188422ED1FFE744F25440C5F60200ED
:104C9000006800F0070001460B9105281DD80B990C
:104CA000DFE801F003070B0F131700208DF86500F4
:104CB00017E004208DF8650013E008208DF86500EA
:104CC0000FE010208DF865000BE020208DF86500C6
:104CD00007E040208DF8650003E080208DF8650036
:104CE000FFE72EE11B98006845F20001C4F20001C5
:104CF00088422ED1FFE744F25440C5F60200006816
:104D000000F0070001460A9105281DD80A99DFE83E
:104D100001F003070B0F131700208DF8650017E053
:104D200004208DF8650013E008208DF865000FE081
:104D300010208DF865000BE020208DF8650007E05D
:104D400040208DF8650003E080208DF86500FFE7C6
:104D5000F6E01B98006841F20041C4F2010188426C
:104D600040F04180FFE744F25440C5F6020000687D
:104D700000F038000146099128282FD80999DFE86A
:104D800001F0152D2D2D2D2D2D2D192D2D2D2D2DE8
:104D90002D2D1D2D2D2D2D2D2D2D212D2D2D2D2D5F
:104DA0002D2D252D2D2D2D2D2D2D290001208DF87A
:104DB000650017E004208DF8650013E008208DF8E9
:104DC00065000FE010208DF865000BE020208DF8C5
:104DD000650007E040208DF8650003E080208DF835
:104DE0006500FFE7ABE01B98006847F60001C4F2DE
:104DF000000188422ED1FFE744F25440C5F602007C
:104E0000006800F007000146089105281DD80899A0
:104E1000DFE801F003070B0F131700208DF8650082
:104E200017E004208DF8650013E008208DF8650078
:104E30000FE010208DF865000BE020208DF8650054
:104E400007E040208DF8650003E080208DF86500C4
:104E5000FFE773E01B98006847F60041C4F20001C9
:104E600088422ED1FFE744F25440C5F602000068A4
:104E700000F007000146079105281DD80799DFE8D3
:104E800001F003070B0F131700208DF8650017E0E2
:104E900004208DF8650013E008208DF865000FE010
:104EA00010208DF865000BE020208DF8650007E0EC
:104EB00040208DF8650003E080208DF86500FFE755
:104EC0003BE01B98006840F60041C5F600018842AF
:104ED0002ED1FFE744F25840C5F60200006800F00A
:104EE00007000146069105281DD80699DFE801F064
:104EF00003070B0F131702208DF8650017E004203D
:104F00008DF8650013E008208DF865000FE0102093
:104F10008DF865000BE020208DF8650007E040204B
:104F20008DF8650003E080208DF86500FFE703E061
:104F300080208DF86500FFE7FFE7FFE7FFE7FFE769
:104F4000FFE7FFE7FFE7FFE7FFE71B98006840F692
:104F50000041C5F60001884240F0B480FFE79DF8AB
:104F6000650001460591022814D0FFE70598042842
:104F700014D0FFE70598082816D0FFE705981028F9
:104F800018D0FFE70598202835D0FFE7059840287E
:104F900037D03AE0FBF768FE0F903CE013A8FBF730
:104FA00077FE14980F9036E010A8FBF7C9FF119810
:104FB0000F9030E044F20040C5F60200006800F0B7
:104FC00020010020B0EB511F0ED0FFE744F200405B
:104FD000C5F602000068C0F3C10149F20000C0F24A
:104FE000D030C8400F9005E049F20000C0F2D03048
:104FF0000F90FFE70FE040F60010C0F23D000F9069
:1050000009E04FF400400F9005E000200F900120D0
:105010008DF85F00FFE70F98002852D0FFE70F9848
:105020001B994A6A45F24E61C0F6000131F8121030
:10503000B0FBF1F0169016981B99496801EB4101FD
:10504000884207D3FFE716981B994968B0EB013FE8
:1050500004D9FFE701208DF85F0031E00F981B991C
:105060004A6803924A6A45F24E61C0F6000131F87F
:105070001220002304931946FBF77EF9039A049B40
:10508000090241EA1061000210EB520041F10001F7
:10509000FBF772F918901898B0F5407F0BD3FFE733
:1050A00018990020B0EB115F05D1FFE718981B9904
:1050B0000968C86003E001208DF85F00FFE7FFE7A3
:1050C000FFE746E11B98C069B0F5004F40F0A880AB
:1050D000FFE79DF8650001460291402800F26380D9
:1050E0000299DFE801F021256060296060602F608F
:1050F00060606060606035606060606060606060DB
:1051000060606060606056606060606060606060A9
:10511000606060606060606060606060606060608F
:105120006060606060605C00FDF72AFB0F9040E00B
:10513000FDF73AFB0F903CE013A8FBF7A9FD14988C
:105140000F9036E010A8FBF7FBFE11980F9030E0AF
:1051500044F20040C5F60200006800F02001002083
:10516000B0EB511F0ED0FFE744F20040C5F602003D
:105170000068C0F3C10149F20000C0F2D030C8405D
:105180000F9005E049F20000C0F2D0300F90FFE729
:105190000FE040F60010C0F23D000F9009E04FF420
:1051A00000400F9005E000200F9001208DF85F0077
:1051B000FFE70F9898B3FFE70F981B9A5168536A5F
:1051C00045F24E62C0F6000232F81320B0FBF2F056
:1051D000400000EB5100B0FBF1F018901898102837
:1051E00018D3FFE7BDF86200A0B9FFE7189820F0D8
:1051F0000F00ADF86600189800F00E01BDF86600CB
:1052000040EA5100ADF86600BDF866001B990968D8
:10521000C86003E001208DF85F00FFE7FFE797E03B
:105220009DF8650001460191402800F263800199D4
:10523000DFE801F021256060296060602F60606018
:105240006060606035606060606060606060606089
:105250006060606056606060606060606060606058
:10526000606060606060606060606060606060603E
:10527000606060605C00FDF783FA0F9040E0FDF72E
:1052800093FA0F903CE013A8FBF702FD14980F90DF
:1052900036E010A8FBF754FE11980F9030E044F26E
:1052A0000040C5F60200006800F020010020B0EBCD
:1052B000511F0ED0FFE744F20040C5F6020000681F
:1052C000C0F3C10149F20000C0F2D030C8400F90D5
:1052D00005E049F20000C0F2D0300F90FFE70FE088
:1052E00040F60010C0F23D000F9009E04FF400407E
:1052F0000F9005E000200F9001208DF85F00FFE780
:105300000F9820B3FFE70F981B9A5168536A45F234
:105310004E62C0F6000232F81320B0FBF2F000EB50
:105320005100B0FBF1F01890189810280AD3FFE74D
:10533000BDF8620030B9FFE7BDF860001B9909684D
:10534000C86003E001208DF85F00FFE7FFE7FFE79B
:10535000FFE71B990120A1F86A001B99A1F86800DA
:105360001B99002048671B9988679DF85F001CB057
:1053700080BD00000000000080B586B0DDF820C0D0
:10538000049003918DF80B200193FFE704980068C7
:10539000C06903990840401AB0FA80F040099DF8AE
:1053A0000B1088425ED1FFE708980130002858D0E2
:1053B000FFE7FBF7B9FA0199401A0899884203D828
:1053C000FFE7089820B9FFE703208DF817004DE0AC
:1053D0000498006800684007002841D5FFE704985A
:1053E0000068C06900F008010120B0EBD10F16D1B0
:1053F000FFE7049801680820009008620498FFF70E
:10540000D7FA00980499C1F89000FFE704990020AA
:1054100081F88400FFE701208DF8170026E004984A
:105420000068C06900F400610120B0EBD12F16D1F3
:10543000FFE7049801684FF4006008620498FFF7E2
:10544000B7FA04992020C1F89000FFE704990020E2
:1054500081F88400FFE703208DF8170006E0FFE7DE
:10546000FFE793E700208DF81700FFE79DF817008E
:1054700006B080BD00000000FFE7FEE7000000006E
:105480004EF60C50CEF200000068C0F302207047C8
:1054900082B0ADF806000091BDF9060000280AD4DC
:1054A000FFE700980001BDF906104EF20042CEF26F
:1054B000000288540BE000980001BDF8061001F0CE
:1054C0000F014EF61452CEF200028854FFE702B0EC
:1054D000704700000000000083B00290029800F0C6
:1054E000070000904EF60C51CEF2000108680190C2
:1054F00001984FF6FF02104001900198009A40EA8F
:1055000002200022C0F2FA52104301900198086074
:1055100003B070470000000080B584B00020009008
:105520004EF61450CEF2000000688003002801D52A
:10553000FFE71AE0BFF34F8FBFF36F8F4EF6507146
:10554000CEF2000100200860BFF34F8FBFF36F8FD2
:105550004EF61451CEF20001086840F400300860A5
:10556000BFF34F8FBFF36F8FFFE74EF61450CEF2AD
:1055700000000068C003002801D5FFE73CE04EF6BC
:105580008451CEF2000100200860BFF34F8F4EF629
:105590008050CEF20000006803900398C0F34E30B4
:1055A0000290FFE70398C0F3C9000190FFE702995A
:1055B0000198800761F34D104EF66071CEF2000144
:1055C00008600198411E01910028F0D1FFE7029880
:1055D000411E02910028E5D1FFE7BFF34F8F4EF641
:1055E0001451CEF20001086840F480300860BFF327
:1055F0004F8FBFF36F8FFFE7FBF7AEF9FEF7C8FAE7
:10560000FEF71EFEFEF72CFBFEF75AFBFEF788FBAB
:10561000FFE7FEE7F1EE100A4FF6FF71C0F2C0316E
:1056200020EA010040F04070E1EE100A70470000EF
:10563000000001020304010203040607080908042C
:10564000020408010101010101030701000001003A
:1056500002000400060008000A000C0010002000F0
:10566000400080000001000088560008000000246F
:1056700010000000D4020008985600081000002412
:1056800048770000F00200080090D0030090D0039B
:08569000010000001000000001
:040000050800029954
:00000001FF
